:03000000020800F3
:0C080000787FE4F6D8FD758119020847E6
:1008DD001008000102030405060708090A0B0C0D98
:0608ED000E0F02180000CE
:1008B700E4FDFCC3ED9FEE6480F8EC64809850156E
:1008C700E4FBFA0BBB00010AEB64144A70F50DBD9B
:0508D70000010C80DEB1
:0108DC0022F9
:10088C00D294E4F518F51974082519F8E6F5807F6B
:10089C00E87E031208B70519E51970020518C39410
:0B08AC0010E5186480948040DE80D7C7
:10080C0002088CE493A3F8E493A34003F68001F26E
:10081C0008DFF48029E493A3F85407240CC8C333ED
:10082C00C4540F4420C8834004F456800146F6DFBC
:10083C00E4800B01020408102040809008DDE47E67
:10084C00019360BCA3FF543F30E509541FFEE493B1
:10085C00A360010ECF54C025E060A840B8E493A378
:10086C00FAE493A3F8E493A3C8C582C8CAC583CAA3
:10087C00F0A3C8C582C8CAC583CADFE9DEE780BE5B
:0108F3000004
:00000001FF
